:100000000000032099010000750C0100CFFC0000E6
:10001000D1FC0000D3FC0000D5FC00000000000073
:10002000000000000000000000000000D7FC0000FD
:10003000D9FC000000000000DBFC0000DDFC00003B
:10004000DFFC0000DFFC0000DFFC0000DFFC000044
:10005000DFFC0000DFFC0000DFFC0000DFFC000034
:10006000DFFC0000DFFC0000DFFC0000DFFC000024
:10007000DFFC0000DFFC0000DFFC0000DFFC000014
:10008000DFFC0000DFFC0000DFFC0000DFFC000004
:10009000DFFC0000DFFC0000DFFC0000DFFC0000F4
:1000A000DFFC0000DFFC0000DFFC0000DFFC0000E4
:1000B000DFFC0000DFFC0000DFFC0000DFFC0000D4
:1000C000DFFC0000DFFC0000DFFC0000DFFC0000C4
:1000D000DFFC0000DFFC0000DFFC0000DFFC0000B4
:1000E000DFFC0000DFFC0000DFFC0000DFFC0000A4
:1000F000DFFC0000DFFC0000DFFC0000DFFC000094
:10010000850C0100A50C0100C50C0100E50C0100E7
:10011000DFFC0000DFFC0000DFFC0000DFFC000073
:10012000DFFC0000DFFC0000DFFC0000DFFC000063
:10013000DFFC0000DFFC0000DFFC0000DFFC000053
:10014000DFFC0000DFFC0000DFFC0000DFFC000043
:10015000DFFC0000DFFC0000DFFC0000DFFC000033
:10016000DFFC0000DFFC0000DFFC0000DFFC000023
:10017000DFFC0000DFFC0000DFFC0000DFFC000013
:10018000DFFC0000DFFC0000DFFC0000DFFC000003
:10019000DFFC0000DFFC00000B490C4808800C4825
:1001A00008800C490C4808800C490D4A0D4B9B1ADD
:1001B00005DD00240859105104349C42FADB0A483A
:1001C00080470A48004700000E20054020C5000077
:1001D00028D9000000200540D2010000187F02004D
:1001E0009801FF1FA002FF1FE1FC00006504000052
:10040000FFFFFFFFFFFFFFFFFFFFFFFFFEFDFFFFFF
:1004100010B5054C237833B9044B13B10448AFF33E
:1004200000800123237010BDA002FF1F0000000008
:100430000C7F020008B5064B1BB106480649AFF316
:1004400000800648036813B1054B03B1984708BD07
:10045000000000000C7F0200A402FF1FA002FF1F8B
:1004600000000000154B002B08BF134B9D46A3F561
:10047000803A00218B460F461348144A121A1BF08B
:10048000EFFE0F4B002B00D098470E4B002B00D0F7
:1004900098470020002104000D000D48002802D0DC
:1004A0000C48AFF300801BF0CDFD2000290011F0B7
:1004B00067FC1AF039FF00BF0000080000000320AD
:1004C0000000000000000000A002FF1FB00AFF1F94
:1004D00000000000000000000029026909DD136827
:1004E000806803EBC101124B814234BF08461846B5
:1004F0007047104B994203DB806800EBC1007047E6
:100500000D4B994202D1C0682430704712680A4BE3
:1005100050681628C1EB030308D010688279934213
:1005200004DC044B5B1A00EBC300704700487047C3
:100530006C3E0200D9B9F0FFD8B9F0FF096802F0AB
:1005400087BE06C9002303F0DDB8000070B50C4675
:10055000114616460546FFF7BFFF23680360636830
:1005600043600B4B9E4211DA636858060ED5226831
:10057000537999070AD02B691B6819684B795B0777
:1005800004D52846BDE8704004F0EAB970BD00BF4C
:10059000D8B9F0FF30B5446804F03F04062C0ED003
:1005A000262C25D10029006822DD8479A1421FDC98
:1005B000013100EBC1011160E3B118601AE0046879
:1005C0000029E06814DD856AA94211DC4D1E04EBA8
:1005D00085042569AD6815600BB122691A6001F1C7
:1005E00000510139C36953F8310018B1103030BDE2
:1005F000002030BD004830BD5256020037B5836838
:1006000082690191D21AB1EBE20F044605690EDB53
:10061000C2699B1ADB10C1F57421053301F5107115
:100620008B420DDC094901AA02F0AEFD40B9A26877
:10063000019B02EBC3036A689A4203D26B6001E03C
:10064000002000E0012003B030BD00BF3D050000E8
:100650008842F0B514D08368A3EBC2038360002303
:1006600093420DDA85688C6805EBC30604F1080730
:1006700055F833508F602560756865600133EFE78A
:10068000F0BDC368D3F88C00C3F88C10704700002D
:1006900018B1C368D3F8940070470148704700BF91
:1006A000EC35020001F57423064A03F227639342F6
:1006B00006D8036980681B68C01A01EBE000704728
:1006C0000846704727460F00036980681B68083397
:1006D000C01AC0107047036900291B6801F10101AD
:1006E0000ADB03EBC10183688B4208D203F10802E5
:1006F000826000225A60F6E7836803EBC1018160E3
:10070000704738B50446FFF7E7FE00F108010B46D5
:10071000A268934203F108030CD2A1F108051A1A4A
:100720002A4453F8085C42F8105C53F8045C42F821
:100730000C5CEDE7083AA26038BD38B50446FFF717
:10074000CBFEA2681346834209D99C1AA2F1080184
:10075000083B65589D6021444968D960F3E71368F8
:1007600003605368436038BD0A46816810B504468B
:100770000839FFF7EBFEA368083BA36010BD38B54E
:1007800004461546FFF7A8FE2A4601462046BDE866
:100790003840FFF7DBBE10B50446FFF79DFEA368A7
:1007A00002681A6042685A600833A36010BD0000F6
:1007B00008B5FFF791FE044B98421ABF406800F05D
:1007C0000F004FF0FF3008BD6C3E02000131024BBC
:1007D00053F82100704700BFA041020008B5FFF7A1
:1007E0007BFE4068162804D0B0F166035842584199
:1007F00008BD012008BD07B5FFF76EFE4368032B57
:1008000006D0694608F09DFA003018BF012000E0CC
:10081000012003B05DF804FB08B5FFF7C9FF0338FA
:1008200001288CBF0020012008BD000070B51646CD
:100830000546FFF751FE314604462846FFF74CFEB9
:100840000A4B9C4202460ED098420CD04368616825
:1008500099424FF0000008D1214608F0E9FB003032
:1008600018BF012070BD002070BD70BD6C3E02003D
:10087000F8B517461E460546FFF72EFE39460446D4
:100880002846FFF729FE134B9C4202461ED0984291
:100890001CD0012E0ED0022E12D0BEB96168436862
:1008A000994215D12846214608F0C2FB003018BFF6
:1008B0000120F8BD28462146BDE8F84008F044BBB9
:1008C00028462146BDE8F84008F071BB0020F8BD7D
:1008D0003046F8BD6C3E020013B51446FFF7FCFD30
:1008E0004268032A034604D0694608F02AFA034600
:1008F00028B10CB10122226093ED000A03E004B19B
:1009000020609FED020A02B010BD00BF0000000091
:1009100013B51446FFF7E0FD4268032A034604D0EE
:10092000694608F00EFA034648B1D3ED007AFDEEB1
:10093000E77A17EE900A34B10123236003E00CB18B
:10094000206000E0204602B010BD00002DE9F0411B
:100950002DED028B82B09046FFF7BEFD4268032A60
:10096000034604D0694608F0ECF9034650B393ED12
:10097000008ADFED1A7A68EE277A17EE900A22F0E5
:1009800093FA41EC100B15F0A7FB18EE100A57EC88
:10099000106B22F089FA002204460D46104B3046B7
:1009A000394622F0D5FA02460B462046294622F067
:1009B0001BF922F08FFDB8F1000F0AD00123C8F80F
:1009C000003006E0B8F1000F02D0C8F8000000E0E7
:1009D000404602B0BDEC028BBDE8F0810000802FE4
:1009E0000000F04108B5FFF777FD436833B1012BF4
:1009F00006D10068003018BF012008BD184608BDA8
:100A0000012008BD70B50E4614460546FFF764FD8B
:100A1000426802F00F02042A014612D0284608F06C
:100A2000ABF910B9A4B1206070BDEB68DB68002B96
:100A300002DD284604F04AF931462846FFF74CFD0E
:100A4000014614B10A68D26822600868103070BD8F
:100A5000204670BD08B5FFF73FFD436803F00F0364
:100A6000052B09D0072B04D0042B0AD10368D868C2
:100A700008BD0368186908BD0068BDE8084007F0B4
:100A800001BE002008BD08B5FFF726FD436803F04E
:100A90000F03022B04D0072B04D10068183008BDC7
:100AA000006808BD002008BD08B5FFF715FD4368C4
:100AB000482B0CBF0068002008BD38B505460C4621
:100AC000FFF70AFD426802F03F02072A0ED005DC5C
:100AD000052A09D008DC022A08D00DE0162A03D026
:100AE000262A01D0082A07D1006838BD28462146A9
:100AF000BDE83840FFF7C7BF002038BD836800223B
:100B00005A600833836070478368032283ED000ACC
:100B10005A60836808338360704707EE101A836851
:100B2000F8EEC77A0322C3ED007A5A60836808336F
:100B300083607047002907EE901A8368ACBFF8EE17
:100B4000E77AF8EE677A0322C3ED007A5A60836889
:100B5000083383607047C368DB68002B70B50446B8
:100B60000E46154601DD04F0B1F82A46204631460E
:100B700007F016F9A3681860027942F040025A6043
:100B8000A3680833A360103070BD38B504460D4625
:100B900019B9FFF7B3FF284638BDC368DB68002BDF
:100BA00001DD04F093F82046294607F079F9A3689F
:100BB0001860027942F040025A60A3680833A360CB
:100BC000103038BDC368DB68002B70B504460E4694
:100BD000154601DD04F07AF8204631462A46BDE884
:100BE000704005F005B80EB4C368DB68002B17B57C
:100BF000044601DD04F06AF806AA20460599019230
:100C000004F0F6FF03B0BDE8104003B0704770B5C4
:100C100004460E4615461AB983681622196020E06C
:100C2000C368DB68002B01DD04F050F8294620463C
:100C300002F0B2FFC660A368EA009B1AA2F10801A5
:100C4000A36019440244013D6E1CA1F10801A2F108
:100C5000080204D08E681661CE685661F3E718600A
:100C600066225A60A3680833A36070BD83680031B0
:100C700018BF0121196001225A608368083383601C
:100C800070478368022219605A6083680833836062
:100C900070478368482218605A608368083383600D
:100CA000C368D3F890301B1A5842584170472DE959
:100CB000F041C36804460F46586A022107F08AFAD9
:100CC000A56805F108030646A3603946204607F0EB
:100CD000E7F828600379A26843F04003083A6B60A4
:100CE000204631461346BDE8F04108F067B810B51C
:100CF0000446FFF7F1FBA268083A01461346204676
:100D0000BDE8104008F05AB82DE9F04104461746F6
:100D1000FFF7E2FB394606462046A56807F0C0F813
:100D200028600379A26843F040036B6002F1080376
:100D3000A360204631461346BDE8F04108F03EB8B6
:100D400010B50446FFF7C8FBA1680068083907F032
:100D500083FAA368026843F8082C426843F8042C1D
:100D600010BD38B515460446FFF7B6FB29460068A6
:100D700007F030FAA36802681A6042685A600833C4
:100D8000A36038BDC368DB68002B70B504460E460F
:100D9000154601DD03F09AFF204607F0E7F9A36846
:100DA000452218605A60A368002E03F1080301462B
:100DB000A36001DC002D06DD204632462B46BDE84F
:100DC000704007F0A7BA70BD10B50446FFF784FB6A
:100DD000436803F00F03052B01D0072B02D10368F2
:100DE0009B6803E0E268383352F8233043B1A268CD
:100DF000136045235360A3680833A360012010BD2E
:100E0000184610BD10B50446FFF766FB0368DA68A4
:100E1000A3680AB11A6045225A60A3680833A36028
:100E200010BDF8B5C36804460F46586A022107F0A2
:100E3000D1F9A56805F108030646A36039462046A6
:100E400007F02EF82860037943F040036B60A36835
:100E50002046A3F108023146103B08F003F8A368CE
:100E6000103BA360F8BDF8B504461746FFF734FB06
:100E7000A56805F108030646A3603946204607F039
:100E80000FF82860037943F040036B60A3682046A5
:100E9000A3F108023146103B07F0E4FFA368103BC2
:100EA000A360F8BD70B50446FFF716FBA6680546BB
:100EB000A6F110022968204607F0CEFB56F8083C40
:100EC000036056F8043C43602B6800229A71A368C3
:100ED00053F8042C51060BD553F8083C5B799A075C
:100EE00006D029684B795B0702D5204603F04BFDFD
:100EF000A368103BA36070BD70B504461646FFF7AB
:100F0000EBFAA368054632462968083B204607F0FD
:100F1000DFF9A36853F8042C51060BD553F8083CAD
:100F20005B799A0706D029684B795B0702D5204682
:100F300003F029FDA368083BA36070BD70B50546AA
:100F4000FFF7CAFAAB6853F8044C06460CB153F8E5
:100F5000084C736803F00F03052B02D0072B0ED04B
:100F600021E033689C6014B363799B0715D0316826
:100F70004B79580711D5284603F005FD0DE033687D
:100F80009C60A4B163799A0707D031684B795B07FD
:100F900003D52846224603F0E3FC28463168224662
:100FA00003F04EFD03E0EA68383342F82340AB68B3
:100FB000083BAB60012070BD10B50446FFF78CFA0A
:100FC000A268036852F8041C09B9D9600FE052F80E
:100FD000082CDA60A36853F8082C5379990706D0D7
:100FE00001684B795B0702D5204603F0B9FCA36882
:100FF000083BA36010BD03699A7C02F0080202F06E
:10100000FF0022B109B19A690A6093F82500704780
:10101000F8B56FF0070701FB0771069E8768044665
:10102000154639443EB1878C2FB90769FE610669C0
:10103000B361012302E020462A46002302F062FB4E
:10104000013505D12369A2685968914238BF5A60B9
:10105000F8BD00002DE9F04385B004460D46174663
:10106000DDF834802BB11946FFF736FAE369C01A70
:1010700000E018466FF00706A26805FB06661644F6
:101080000296B8F1000F04D0B4F82490B9F1000F23
:1010900009D0E369009019490397204602AAF31A80
:1010A00002F0E2FB1FE025690C9AC5F81C80AA61DA
:1010B000E269B21A6A6194F8292085F82420626CEA
:1010C0002A626064AB7C43F01003AB7420460123BA
:1010D00031463A4602F016FBAB7C23F01003AB74AA
:1010E0002B6A63644846013705D12369A2685968B1
:1010F000914238BF5A6005B0BDE8F0834305000057
:10110000F0B51B4D87B00F461646002B18BF1D4685
:10111000044601A93A46334608F09CFF2A46204679
:1011200001A90C9B02F0CAFB0546E8B9A36853F875
:10113000086CB379012B17D1E3680221586A07F0D4
:1011400049F8316903688A681360436853604268EC
:10115000560609D502685379980705D04B795B0785
:1011600002D5204603F0FCFB284607B0F0BD00BFC7
:101170004739020073B5846854F8045C462D0E4666
:10118000134608D154F8082C00210091D16832464A
:1011900002F0E9FC00E0012002B070BD80797047E8
:1011A00070B50646C4680B295BD8DFE801F0060A73
:1011B00012161B21414B46505355002584F83350DD
:1011C00051E02046002106F017FC012384F833305B
:1011D00045E0002103F0D3FC41E0E568A3681D442D
:1011E000AD0A40E0E568A3681D44C5F309053AE08F
:1011F00094F83230022B07D16569D5F1010538BF6B
:10120000002503F0FBFC2EE094F833309202A2F5A7
:10121000C8610BB1E3681944204606F0EDFB304687
:1012200003F0ECFC94F831506B1F5D425D411AE015
:10123000D4F88050C4F8802015E0D4F88450C4F865
:10124000842010E0D4F88850C4F888200BE094F88B
:10125000335008E0022100E0002103F06FFC00257C
:1012600001E04FF0FF35284670BD08B501F0E4FD00
:1012700010B50446FFF730F9A2680346083A19682A
:10128000204606F0EDFEA36808B1083300E0083BF5
:10129000A36010BD012970B504460D460BDDC3687F
:1012A000DB68002B01DD03F011FD20462946BDE877
:1012B000704007F043BF61B9064986682A4606F0C8
:1012C0006FFD3060037943F040037360A368083317
:1012D000A36070BD5256020010B50446FFF7FCF83B
:1012E000A1680246204607F0D1FFA3680833A36037
:1012F00010BD38B5C368DB68002B04460D4601DD20
:1013000003F0E4FC20462946002206F0D6FDA3683F
:10131000472218605A60A3680833A360183038BDAC
:10132000F7B502AC002644F8046D17460546FFF7F2
:10133000D3F8394622463346FFF72CF938B1019AE3
:10134000AB681168526819605A600833AB6003B02B
:10135000F0BD37B500231546009301930446FFF70F
:10136000BBF829466A4601ABFFF714F90546D0B130
:10137000A368A3F10802A260009A53F8081C116048
:1013800053F8041C516053F8042C50060BD553F845
:10139000082C5379990706D001994B795B0702D540
:1013A000204603F0DDFA284603B030BD10B51446E0
:1013B000FFF792F8436803F03F03062B06D0262B75
:1013C00009D10368013403EBC40010BD0368033482
:1013D00053F8240010BD002010BD2DE9F041164641
:1013E00098460546FFF778F841460468069F284668
:1013F000FFF772F80368013F03EB870303361969AF
:1014000044F826101A695379990708D063795B0765
:1014100005D528462146BDE8F04103F0A1BABDE854
:10142000F081002A08B504DA52421F2A05DCD140B7
:1014300004E01F2A01DC914000E00021FFF77AFB65
:10144000012008BD38B50121044609F090FA0221B7
:101450000546204609F07AFA294642422046BDE870
:101460003840FFF7DEBF38B50121044609F07FFAA6
:1014700002210546204609F069FA2946024620461F
:10148000BDE83840FFF7CDBF38B50221044609F06A
:101490005DFA01210546204609F069FA01466842D5
:1014A00010F01F001CBFC0F12000C1412046FFF713
:1014B00041FB012038BD10B50121044609F057FA5F
:1014C000C1432046FFF736FB012010BD38B501218E
:1014D000044609F04CFA02210546204609F036FA86
:1014E000021E01DB002D06DB204629465242BDE8E4
:1014F0003840FFF796BF1F2A4FF0FF3103DCD5407D
:10150000D14065EA01012046FFF714FB012038BDF8
:101510002DE9F84388460446914609F017FA08F188
:101520000107054639462046012209F031FA002D0F
:10153000064604DA204641460A4A09F025F8002EFC
:1015400004DC20463946084A09F01EF8AB19202B66
:1015500003DD2046054908F0FBFFC9F80060284676
:10156000BDE8F883F035020009360200203602009B
:10157000F7B50121044609F0FAF902210746204691
:1015800009F0F5F901AA064603212046FFF7C0FF3E
:10159000019D6FF00102013DAA40D24302FA00F121
:1015A000324027EA010702FA00F139432046FFF7EB
:1015B000C1FA012003B0F0BD37B50121044609F09E
:1015C000D6F901AA054602212046FFF7A1FF019B9B
:1015D0006FF00101013BC5409940204625EA010119
:1015E000FFF7A8FA012003B030BDF8B50646FFF7B3
:1015F0006BF84FF0FF3507460124BC4206DC21465C
:10160000304609F0B4F901340540F6E72846F8BD44
:1016100010B50446FFF7E9FF011C18BF0121204661
:10162000FFF724FB012010BD10B50446FFF7DDFFD6
:1016300001462046FFF77EFA012010BDF8B50646A8
:10164000FFF742F8002507460124BC42304605DC7E
:10165000214609F08CF901344540F6E72946FFF7A9
:1016600069FA0120F8BDF8B50646FFF72DF8002508
:1016700007460124BC42304605DC214609F077F9D3
:1016800001340543F6E72946FFF754FA0120F8BD77
:1016900038B50221044609F059F9012105462046D2
:1016A00009F065F915F01F0518BFC5F120050146C1
:1016B00018BF60FA05F12046FFF73CFA012038BD5B
:1016C00010B5002104460C22FFF75CFB20460349BD
:1016D000002209F069FC012010BD00BF8C36020019
:1016E0000378052B08D18368013305D1C068B0F1B8
:1016F000FF3358425841704700207047C3682DE9B6
:10170000F3470746D3F820A00C461646504622461B
:10171000796806F0A1FF43683C68032B81461CD022
:101720003D6AD4F82C8007EE105AF8EEC77A0323EE
:10173000C9ED007AC9F80430E36A9D4221DB6FF0FD
:101740007C430093234B01935046A16804F12C0283
:10175000082304F09DF8A06013E0D0ED007AA168A2
:101760007368FDEEE77A17EE905A01EBC5014A68FF
:101770009A42D5D10020324607F05AFC0028CFD03B
:1017800024E0E16A4FEAC8028845A36806DA1344F8
:10179000002008F1010858600832F5E7326843F884
:1017A000352003EBC50173684B603B6A01333B6234
:1017B000736858060AD532685379990706D0637959
:1017C0005B0703D55046214603F0CAF8284602B00D
:1017D000BDE8F087F4360200C36853F82100800B9F
:1017E0006FF4FF73A0F5FF301844421C1CBF013199
:1017F00040187047C068002900EB810008DD10F830
:10180000043C044A03F03F03D356002BB8BF04380E
:10181000704700BFB93E020070B506460C46631C17
:101820000FD0356821462846FFF7E4FF037803F020
:101830003F031C2B07D121462846FFF7CDFF044666
:10184000EDE7002070BD012070BD000010B50068FC
:101850001446FFF7CFFF036803F03F021C2A16D19E
:10186000FF2C4FEAD35109D08C4207D0A40123F4B6
:101870007F5304F47F542343036006E0054A1A4073
:1018800042F01B0242EA81110160012010BD0020DC
:1018900010BD00BF00C07F0038B505460C46631C74
:1018A0000AD02146FF222846FFF7D0FF21462868AC
:1018B000FFF792FF0446F2E738BDCB0508D490F855
:1018C0002E30994204DB90F83030013B80F8303004
:1018D00070470B78062B02D14968FFF7EEBF7047BF
:1018E00008B50068FFF786FF036823F47F52C3F34F
:1018F0008713002B14BF002340231343036008BD4C
:1019000010B5CC432244036882EAE274A4EBE2748B
:10191000B4F5003FDB6803DBC068084903F0F3FA65
:1019200053F8210002F5FF3202F2FF12C0F30D005E
:1019300040EA823243F8212010BD00BFFE3602008B
:101940002DE9F843089E05460C4617469846631C49
:1019500015D021462868FFF73FFF214681464246C1
:101960002846FFF773FF18B1284621463A4602E0A1
:10197000284621463246FFF7C3FF4C46E7E7BDE85D
:10198000F883000073B54269056800920446FF239E
:101990000E46C169FFF7D4FF4FF0FF33E361626980
:1019A0002B6B9A420CDB164A0092E368154A0192AF
:1019B000186AE96805F13002042303F069FFE86062
:1019C0006269EB6843F8226062696B6B9A420CDBD8
:1019D0000B4A0092E3680B4A0192186A696905F1A3
:1019E0003402042303F054FF6861E3686A6999686C
:1019F000636942F823106069431C636102B070BDE3
:101A0000FDFFFF7F19370200436983611846704765
:101A10000132F8B5970106460C4607F47F57631C60
:101A20000ED0356821462846FFF7D6FEEB6853F8FE
:101A3000242022F47F523A4343F824200446EEE760
:101A4000F8BDF8B50646501C154614D00C68621C4B
:101A500001D10D60F8BD376838462146FFF7BCFE5E
:101A6000431C01D00446F7E7304621462A46BDE82C
:101A7000F840FFF745BFF8BD10B5446984610A46D8
:101A8000BDE8104000F11C01FFF7DBBF13B544694E
:101A9000A24204D102B0BDE81040FFF7EDBF0092B2
:101AA000FF23FFF74DFF02B010BD000037B54FF028
:101AB000FF33C5690749C3610446FFF763FF02A905
:101AC0002A4641F8040D2046FFF7BBFF019803B0FA
:101AD00030BD00BF1780FF7F10B5029CA40344EA0D
:101AE000C353194341EA8211BDE81040FFF74ABFD2
:101AF0002DE9F34113464569826995420C4632DD72
:101B0000026805F18045013DD26852F8256006F073
:101B10003F01042927D1C6F38711A14204EB030C2E
:101B200001EBD65703DC07F10108444503DD8C4285
:101B300019DC614517DCA142B8BF0C46A30103F4D0
:101B40007F5326F47F560CF1FF3C1E43C6F3160666
:101B50006745ACBFC4EB0704C4EB0C0446EAC454AD
:101B600042F8254006E00022009204212246013B73
:101B7000FFF7B2FF02B0BDE8F08113B5531C0C466D
:101B8000002200921F212246FFF7A6FF02B010BDDF
:101B900041EA821141EA8331FFF7F4BEB2F5802FAA
:101BA00070B50B460546144606DA1A46012123464F
:101BB000BDE87040FFF7ECBF1A4602210023FFF793
:101BC000E7FFA101064641F027012846FFF7DAFEAC
:101BD000304670BD08B590F830301944036893F86A
:101BE0004E20914208DDF929D8BF83F84E1003DD5D
:101BF000C068024903F087F908BD00BF2137020021
:101C000038B504460D46FFF7E5FF94F830301D4423
:101C100084F8305038BD07B50B79009143F040038C
:101C200069466A460193FFF769FD03B05DF804FB5E
:101C30007FB5C3688DED010AB5EE400A1C6A8DEDD3
:101C4000020A0323F1EE10FA0646039304D0B4EE21
:101C5000400AF1EE10FA17D0A56805F10803A36059
:101C600001A90422204606F09BF828600379A168A8
:101C700043F040036B603046083902AAFFF73EFD8F
:101C8000A368083BA36003E002A90A46FFF736FDFC
:101C900004B070BD0B780C2B70B510D103684C6884
:101CA000D868164950F824300132920323F4FF0318
:101CB000114023F480430B4340F8243070BD0D2BBA
:101CC0001BD103684D68DB6853F825600132C6F309
:101CD000160646EAC25243F825204A6890F830407A
:101CE00053F8221021F47F5141EA841143F8221065
:101CF000BDE870400121FFF783BF70BD00C07F00C9
:101D00000B780C2B0AD102680623D2680B704B6843
:101D100052F82330C3F387134B6070470D2B0CD15F
:101D200003684A68DB6853F82200C0F3160040F0ED
:101D3000807043F822000B230B7070470B78073B31
:101D400073B505460C46062B2DD8DFE803F00406D4
:101D50000D2C2C27270006231EE04968C90541F0F9
:101D60000501FFF70FFE15E0B1F90410FFF7A5FD1F
:101D7000E679072E05D1A1792846FFF79EFD314669
:101D800000E00621B4F904200092A379284600223D
:101D9000FFF7A2FE60600B23237004E002B0BDE8F1
:101DA0007040FFF7ADBF02B070BD73B50D4614466D
:101DB0000646FFF7C3FF2B785A1E0A2A40D8DFE8F1
:101DC00002F0060C0C161A333F3F3F3F2500304609
:101DD00021460122FFF78CFE2FE030469E1E002296
:101DE000734200924FF003012246734123E03046D4
:101DF00021466A6807E0304695ED010AFFF718FFB3
:101E0000214602463046FFF7C9FE16E033686A688D
:101E1000DB6853F82210A00100F47F5021F47F51B9
:101E2000014343F8221008E06B689C4205D0002172
:101E3000009130462246FFF74FFE06236C602B7060
:101E400002B070BD2DE9F7430D4604461646FFF774
:101E5000ACFF2B780A2B05D1204605F108016A68F2
:101E6000FFF7EFFDA968EF68B94243D02046FFF7BE
:101E7000D3FC20B920463946FFF7CEFC20B32B789F
:101E80000A2B04D02046FFF711FE804601E04FF0F8
:101E9000FF386369A361012700973246204603217A
:101EA0000023FFF719FE6369A361002300938146B5
:101EB0003B46204603213246FFF70EFE41460746C9
:101EC0002046FFF7D9FD02E04FF0FF37B946D4F8BE
:101ED0001480E968C4F81880204642463346CDF89D
:101EE0000090FFF72DFD00972046A9684246334633
:101EF000FFF726FD4FF0FF33AB60EB6006236E600B
:101F00002B7003B0BDE8F0830B780B2B73B5044640
:101F10000D46164615D102684B68D26852F8232048
:101F200002F03F03142B0ED14369D6F1010603F1F1
:101F3000FF3338BF002643611B210096D20D0023DA
:101F400015E0062B0AD020460121FFF759FE94F830
:101F5000302020462946013AFFF727FF2046294630
:101F6000FFF7B7FC6B68009620461C21FF22FFF7A5
:101F7000B3FD204602B0BDE87040FFF797BD38B50D
:101F800004460D46FFF7DAFE20462946FFF7A1FC7E
:101F900020460121FFF734FE94F8302020462946E0
:101FA000013ABDE83840FFF74DBF38B50C4605464D
:101FB000FFF7C4FE2378062B0FD1A268E3689A428C
:101FC000626801D1104638BD95F82E309A4204DB84
:101FD00028462146FFF736FF03E028462146FFF753
:101FE000CEFF606838BD0B78082B03D18A68CB68B8
:101FF0009A4201D0FFF7D9BF70478A68CB689A42EE
:1020000001D0FFF7D2BFFFF799BE30B50C4685B0BF
:102010000546FFF7F2FF23785A1E042A30D8DFE87E
:1020200002F00303032921002A6AFF2A28DC012B7E
:1020300009D1002303936B6800934523019328463D
:10204000694602AA08E09A1E53425341029302A92C
:102050000123039328460A46FFF750FB04236060E0
:1020600023700AE0284694ED010AFFF7E1FD0423FE
:10207000606023706068FF2802DC40F4807003E039
:1020800028462146FFF791FF05B030BD2DE9F34703
:102090008A461946044617461D46DDF82890FFF784
:1020A000B4FF494606462046FFF7AFFF4946804643
:1020B0002046FFF70EFC20462946FFF70AFC37B9F9
:1020C000BAF1180F03D033460127464698463346E7
:1020D00051463A46CDF800802046FFF7FDFC2046E9
:1020E000FFF7E4FC0A2368602B7002B0BDE8F087BC
:1020F0000B78082BF7B506460C4615460ED0092B73
:1021000016D0072B24D11146FFF7E3FB6268304657
:10211000294603B0BDE8F040FFF794BE1146FFF733
:1021200044FF0023024600933046092163680DE016
:10213000CB791146072B14BF08270A27FFF765FF45
:10214000A279B4F90430009039463046FFF7C4FC58
:102150003046294603B0BDE8F040FFF7BABBF7B5FB
:1021600004460D461646FFF720FF204629466F68B5
:10217000FFF7AFFB94F830306B6006232B702046DE
:102180000221FFF73DFD314620466D68FFF73DFF18
:102190000C2100902A4620463B46FFF79DFC204636
:1021A000314603B0BDE8F040FFF793BB38B50C46AD
:1021B0000546FFF7C3FD2378023B082B0CD8DFE868
:1021C00003F0120B12120B0B0B0B05002846616873
:1021D000FFF786FB626808E0002228462146FFF7E9
:1021E00093FE024601E04FF0FF32284604F10C0155
:1021F000FFF727FC2846A168FFF73EFC4FF0FF33AE
:10220000A36038BD38B50C460546FFF797FD237827
:10221000032B0CD00A2B08D0012B08D00122284612
:102220002146FFF771FE024603E0626801E04FF0CD
:10223000FF32284604F10801FFF703FC2846E16855
:10224000FFF71AFC4FF0FF33E36038BD10B50C46C2
:102250004B688B711146FFF7D8FE2378A080082BBE
:1022600014BF07230823E3710923237010BD38B579
:10227000054614460E291CD8DFE801F0171717177A
:102280001717121B1B1B1B1B1B080D001146BDE85B
:102290003840FFF78BBF1146BDE83840FFF7B2BFAB
:1022A0001146BDE83840FFF76ABE1046FFF718FA3E
:1022B00028B928462146BDE83840FFF7A6BE38BDFC
:1022C0004369026803F18043013B526942F82310DD
:1022D00070472DE9F347044610460F4615461E4643
:1022E000DDF828A0FFF7FCF9D8B13046FFF7F8F980
:1022F000B8B1A7F11003012B06D8D6ED017AF5EE9F
:10230000407AF1EE10FA0ED0A7F10D0095ED010A1A
:10231000D6ED010A03F016FB85ED010A02B0BDE817
:10232000F087132F07D0152F05D020463146FFF731
:102330006CFE804601E04FF0000820462946FFF77A
:1023400064FE8146C145204605DD2946FFF7C1FAF6
:102350002046314604E03146FFF7BBFA20462946C5
:10236000FFF7B7FA39464B46CDF8008020460022E9
:10237000FFF7B2FB0B236860514620462B7002B07A
:10238000BDE8F047FFF79CBF70B586B01E464FF022
:10239000FF330593049305238DF8083001294FF08E
:1023A00000030546144603931CD008D302295CD1D0
:1023B0001146FFF7FAFD00962846152151E0104618
:1023C000FFF78EF930B1D4ED017AF1EE677AC4ED02
:1023D000017A4AE021462846FFF7E7FD00962846A5
:1023E00013213EE01146FFF7A9FC23785A1E0A2A62
:1023F0002BD8DFE802F006080608080F2A2A2A0A66
:102400000F00022320E003231EE028466168FFF747
:1024100067FA1AE0062B0AD028460121FFF7F0FBE5
:1024200095F8302028462146013AFFF7BEFC2846A1
:102430002146FFF74EFA6168C905284641F01401AC
:10244000FFF7A0FA0B2360602370A168E368A36024
:10245000E1602846FFF720FA2846A168FFF71CFA3A
:1024600003E0224602ABFFF734FF06B070BD2DE952
:10247000F041069F064615461C460E2965D8DFE842
:1024800001F04D4D4D4D4D4D1F5656565B5B5B0853
:1024900010002146FFF752FC304604F10C01EA68B7
:1024A00006E02146FFF74AFCAA68304604F108011D
:1024B000FFF7C7FA94E80F0085E80F00BDE8F08148
:1024C0002146FFF79AFD94F80080B8F10B0F3046D3
:1024D0001DD132686368D26812F8233003F03F03DD
:1024E000162B14D12946FFF7F4F933686268DB68CC
:1024F00053F82210C1F31600696840EAC15143F84D
:10250000221063686B6085F80080BDE8F081214689
:10251000FFF735FD06973046162102E00D3106978C
:10252000C9B22A462346BDE8F041FFF7D2BE1131B9
:102530000694C9B2012203E00E310694C9B200220A
:102540002B46BDE8F041FFF7A1BDBDE8F08173B5B2
:10255000013A0C46322192FBF1F50135B3F1FF3F10
:1025600008BF0023B5F5007F064605DA0095242153
:102570002246FFF7B1FA0BE0002200922421224606
:10258000FFF7AAFAA901304641F02701FFF7FAF94F
:10259000013486F8304002B070BD10B50446FEF735
:1025A00093F80022014613462046BDE8104001F092
:1025B0002FB9000070B505460C4608461146164670
:1025C000FEF71CF810B928461D4909E02046FEF721
:1025D000E5FD48B92046FEF777F828B9194928469D
:1025E0001C22FEF7B8FA27E0284621463246FEF7BD
:1025F0002FF820462946324601F0ACF80128204643
:1026000016D8FEF761F80646711C2846FDF7F6FF5E
:1026100038B92046F143FEF75EF828460A491A22E7
:10262000DFE7204629463246FEF712F8304670BDF5
:1026300029460122FEF70CF84FF0FF3070BD00BFB5
:102640007C37020099370200B637020030B501210D
:102650009BB00446FEF728FA054620B92046012122
:10266000164A07F091FFAC4203D1204614490722D5
:102670001EE02846FEF792FD014618B101292046CA
:1026800014D110E0284601AA00F034FA002803DD36
:1026900020460C4906220BE02846FEF715F808B93B
:1026A000204603E020460849092201E007490422A8
:1026B000FEF751FA01201BB030BD00BFD137020038
:1026C000D7470200EE370200E4370200F537020078
:1026D00010B50446FEF7DDFA01462046FEF7C6FABD
:1026E000022010BD38B506220446012108F08CF8FE
:1026F000204605F07BFA012105462046FEF74BF8FF
:10270000204629460122FDF7A3FF012038BD000025
:1027100010B50446FFF7E6FF204603490122FEF705
:1027200076FA012010BD00BF2D27000038B51449EE
:102730000446FEF7B9F905462046FDF7C5FF2946D0
:1027400002462046FFF736FF002817DA20464FF0F2
:10275000FF31FEF761F860B12046012107F0D6FE97
:1027600020466FF00101FDF7E8FF20460221FEF749
:1027700091FD2046BDE83840FEF777BD38BD00BF6B
:10278000D7B9F0FF38B501210446FEF78DF90546AB
:1027900020B920460121104A07F0F6FE2046FDF739
:1027A00093FF2946421E2046FFF704FF051E2046E0
:1027B00009DA0021FEF75AFA20466FF00101FDF711
:1027C000BCFF022038BD0121FEF750FA2046E94344
:1027D000FDF7B3FF681C38BDD137020010B50021EA
:1027E00004460622FEF7CEFA20460349002208F0EE
:1027F000DBFB012010BD00BF443702000368C06945
:102800001B68DB68DB68C01A80100138704710B5A0
:1028100003681B68DB685C6924B1FFF7EFFF54F8BD
:10282000200010BD204610BD2DE9F84399468B7C51
:102830000E6813F0010F80460D4614461FD0002A83
:102840008F6911DA3368DB6893F84C30BF1B544250
:10285000C3EBE707BC422CDA1C4406EBC406C9F8FC
:1028600000601548BDE8F8830846FFF7C7FF3368E6
:1028700002462146D86801F07AFA88B901E006F1EB
:102880000807D8F810309D4216BFEB68D8F808301A
:102890001B68DB1BB4EBE30F0BDC002C09DD0748E6
:1028A00004F10054013C07EBC404C9F80040BDE842
:1028B000F8830020BDE8F883143902001E390200B5
:1028C0002DE9F04707468A4690469946384608F172
:1028D0000101524601F04BFA0646C9F800000028F3
:1028E00040F0B3804FF0FF353446544541DAFB6881
:1028F00053F8241001F03F031B2BC1F3871204F19E
:10290000010C2DD004D8042B09D0172B15D023E0AF
:102910001D2B21D31E2B0DD9222B07D01CE04245A5
:1029200025DC02EBD152904521DC1BE0013242450F
:102930001DDA17E090451ADB14E0890BA1F5FF3191
:102940006FF4FF73194461448C4210DA51450EDC78
:102950008842B8BF08460AE03F49CB5C590606D515
:10296000904504D18442ACBF25464FF0FF35644604
:10297000BBE76B1C6CD0FA6852F8254004F03F03AB
:102980000C2B65D8DFE803F00741416464350F0F75
:102990006464646458004FEAD458C4F38714A045B3
:1029A00056DAAA4692E7072BC4F388364FEAD45189
:1029B00006D1384601312A4601F0D9F9044606E02D
:1029C000FB6953F831400CB1103400E0234C384619
:1029D000294632464B4600F051F8002C37D02046AD
:1029E0001F49204E1AF0F8FC1F4B002818BF1E4646
:1029F0002EE0E40DFB6953F834300BB1103300E0E6
:102A0000164BC9F80030194E22E0012B18BF0135D2
:102A1000BB6816BF52F82540A40BA40903EBC402FF
:102A2000526802F00F02042A12D153F83430104ECB
:102A30001033C9F800300BE038462946C4F3883219
:102A40004B4600F01BF80B4E02E00B4E00E0064E2A
:102A50003046BDE8F08700BFB93E020047390200AA
:102A6000413902003A3902002B3902007E4B020044
:102A7000313902005F390200694B020012F4807F95
:102A800070B51C4610D0836822F4807503EBC50234
:102A9000526802F00F02042A01D0074B02E053F8FB
:102AA00035301033236070BDFFF70AFF0028F4D0E3
:102AB0000378632BF1D170BD4739020030B519B1ED
:102AC000002A08BF002100E00A460469A57CED0742
:102AD00048BFE46980F8282048BF44614163C3626D
:102AE0000363012030BD406B704790F828007047A9
:102AF000C06A7047002910B508DB036900F148047B
:102B000031B1A34202D001399B68F7E7002010BD24
:102B1000A342FBD01366012010BD73B505460C46D9
:102B200061B9836853F8040C462818D153F8083C5F
:102B30001146D868224601F01AF911E002AB0021D3
:102B400043F8041D216EFFF76FFE48B1019AAB6890
:102B50001168526819605A600833AB6000E008469B
:102B600002B070BD37B502AB002543F8045D096EB5
:102B70000446FFF759FEA36830B1019A53F8081CC8
:102B8000116053F8041C5160083BA36003B030BDD2
:102B90002DE9F04F0B783E2B85B006460F461446C4
:102BA00008D18368A3F108084F1CC0F808804FF0D3
:102BB000000B03E0D2F860B0DBF80080D8F80430F6
:102BC00003F01F03062B0CBFD8F80050002507F1B7
:102BD000FF3A4FF001091AF8013F002B00F0DB80AB
:102BE0006C2B36D007D8532B0DD0662BF3D04C2B43
:102BF00040F0CE80EFE7742B54D0752B38D06E2B7D
:102C000040F0C6805BE015B12B79262B08D1824BB2
:102C100023614FF0FF33A361E361804BE36011E078
:102C2000EB685A6A0AB1103200E07D4A22611A6CE0
:102C30005B6CE3617B497C4BA261002A14BF0A46AE
:102C40001A46E26004F1240021693C2203F070F886
:102C5000C1E7BBF1000F07D09BF81230D90703D5AD
:102C60005846FFF7D4FD01E04FF0FF306061B2E756
:102C70000DB1AB7900E02B4684F8203015B12B79EB
:102C8000262B04D1012384F82230002307E0EB68CF
:102C900093F84D3084F82230EB6893F84C3084F888
:102CA000213098E7BBF1000F05D09BF8123003F0FC
:102CB0004003DBB200E05B4684F823308BE7BBF1D6
:102CC000000F5BD09BF812305A0657D4DBF808008F
:102CD000827CD30752D502681268D1680191FFF750
:102CE0008DFD0199CA6852F82020034602F03F008A
:102CF00006381C283FD8DFE800F00F0F343E343E82
:102D00000F1E20222426282A3E2C323E1C2E303E26
:102D10003E11113E3E3E1900002323E00846C2F357
:102D200087121946231DFFF7CBFD25E03F48606061
:102D300022E0052316E0062314E0072312E008230F
:102D400010E009230EE00A230CE00B230AE00C2319
:102D500008E0042306E00D2304E00E2302E00F2325
:102D600000E00123F268324802EB8303D3F89C3081
:102D70001033636000E00020A06001E00023A36046
:102D8000A368002B7FF427AF2A4AA260636022E782
:102D90004FF000091FE7384666211AF010FB40B1DA
:102DA000B368D8F800201A60D8F804205A600833B5
:102DB000B36038464C211AF002FB40B315B12B79B1
:102DC000262B05D1B36800225A600833B3601EE099
:102DD000EB683046D3F8148005F0C8F9B368452293
:102DE00018605A60B3680833B36001230746029342
:102DF00003930024EB685B6B9C4208DA58F82420AC
:102E00003046394602AB05F063FA0134F2E7484632
:102E100005B0BDE8F08F00BF663902006B390200D3
:102E200046390200DE420200493902004E390200F2
:102E30005B3902005256020008B5436C0446EBB100
:102E4000C569EA18516801F00F01062901D0062171
:102E500016E0816851F8086C0E6051F8046CEB586C
:102E60004E6041F8083C536841F8043C01F1080306
:102E7000836008390122002300F044FC204602212F
:102E800000F0E8F80EB480B593B015AA044652F8E5
:102E9000041B029202F0ACFE2569AB7CDB07064600
:102EA0001AD52846FFF7B3FC2B681B68DB68596A04
:102EB000074629B103A810313C2202F039FF04E093
:102EC0003F238DF80C308DF80D10009620460449F4
:102ED00003AA3B4602F01EFF2046FFF7ADFF00BFEE
:102EE0006D3902008FB54B6803F00F030133804644
:102EF00092460069214A52F82340837C0025DB0773
:102F00000E4603952FD503681F68BB799D4230DAC2
:102F100007EB850212699268B2420AD1FB68DB694D
:102F200053F835300BB1103300E0154B0393154BBC
:102F30000CE00135EAE7FFF761FC721B014603ABC9
:102F4000F868D210FFF7BCFC034660B1039A0E4943
:102F50008DE8140040465246FFF794FF8E42EAD0B7
:102F600008319942FAD34046084952462346FFF7B2
:102F700089FF856943682946F3E700BFA041020045
:102F8000473902007E4B0200773902009A3902006D
:102F900008B54B6803F00F04042C03D0032B08BFC3
:102FA000114600E01146014AFFF79CFFB3390200C9
:102FB00007B506460D4608466946144605F0C1FEAB
:102FC000002808BF2C4621463046014AFFF78AFFF9
:102FD000BF3902004968526801F00F0102F00F0288
:102FE00008B50131074B013253F8214053F8223024
:102FF0009C4203D104492246FFF744FF034922467D
:10300000FFF740FFA0410200D5390200F639020067
:10301000042938B50546144608D006290ED10C49B6
:10302000172204F0BDFE2060037904E0C368D3F8E2
:10303000983013601B7943F0400305E0836853F830
:10304000082C53F8043C226063600834AC6038BD3F
:10305000143A020008B5036C024623B11966181D24
:1030600001211AF00DF8C4689171D4F890301D6CEC
:103070006DB19A68806802F108049C6050F8084CB1
:1030800050F8040C506014601846FFF7E3FFD4F8C2
:103090008C3003B1984718F01BF9044608B5A260BC
:1030A000154604F0FDFE2860037943F040036B6091
:1030B000A3680833A36020464FF0FF31FFF7CAFF33
:1030C00070B5054616460C4671B1084611781AF0DF
:1030D00076F948B9054928463246234602F01AFED9
:1030E00028460321FFF7B6FF70BD00BF2C3A02004F
:1030F000F7B50546086803685A1E0C46026023B1FE
:1031000043685A1C42601E7802E006F08FFF0646B4
:103110001B2E2846616B04F1040709D1184AFFF7FA
:10312000CFFF28462168A36B3A4605F0F7FC0CE078
:10313000144AFFF7C5FFA36B8DE8480028462168B5
:103140003A4604F1100304F085FB04460026A379F7
:103150009E4212DA284600F043FD04EB8603024645
:1031600018614379990706D063795B0703D5284630
:10317000214601F0F5FB0136E9E703B0F0BD00BFE1
:10318000563A02005D3A020000B59FB00023039258
:103190001D93C28C01921EAB026C43F8642D00900B
:1031A000036406A8029119F065FF18B90098039905
:1031B000029B9847009A059B13641D98019BD3843A
:1031C0001FB05DF804FB4B1CB3F1005F2DE9F0412B
:1031D00004460F46C569066A01D302F027FB4FEA91
:1031E000C108F2002946434602F026FBE061BE42D8
:1031F00005DA00EBC60300225A600136F7E7A8F1B2
:10320000280800EB0803A361A36827625B1B18442E
:10321000A36BA06033B19A68511BE2690A449A60BB
:103220001B68F7E723698BB15968E269491B1144B0
:1032300059601968491B11441960997CC90703D565
:103240009969491B0A449A619B68ECE7BDE8F081E3
:10325000F8B5124A056A9542044602DD0621FFF7D9
:10326000F9FE8768C669BB1B01EBE3036900053300
:103270009142A8BF114699420ADA9342D8BF194633
:1032800006DD0749FFF79FFF20460649FFF7FAFDD5
:103290002046BDE8F840FFF796BF00BF40420F0050
:1032A00008430F00643A0200826803692BB1596831
:1032B0009B688A4238BF0A46F8E7C369D31ADB1015
:1032C000084A013393420CDC082193FBF1F11944C5
:1032D0000A31036A9142A8BF1146994201DAFFF709
:1032E00072BF704740420F002DE9F043466B9BB020
:1032F0000446002E2FD090F8293063B30569876803
:103300006B68D0F81C90069282690191C9EB07089E
:10331000D71BA72FC9EB0309199502DC1421FFF76E
:1033200097FFA368A0336B60002384F82930AB7C3F
:1033300043F00203AB74204601A9B047012384F88F
:103340002930E36903EB090243446A60A360AB7C64
:1033500023F00203AB741BB0BDE8F08370B590F8A6
:103360002830056913F0060F04460DD09B0708D5D9
:10337000C3694FF0FF32CE1A0121FFF7B5FFE269B2
:103380009119AB68DB696361B5F91000AA682B6815
:103390002261024612B91D4611460CE0A568A942F9
:1033A000F9D251F8085B43F8085B51F8045C43F824
:1033B000045C013AEEE7002905DD0833002643F8F6
:1033C000046C0139F7E722EAE27205EBC205A56059
:1033D000013070BD2DE9F04704460D461746E369FC
:1033E000C3EB05086B6803F03F03162B05D0262BB3
:1033F00005D0062B40F0C88038E02D6801E02B682E
:10340000DD68A269A368D31AA72B03DC2046142128
:10341000FFF71EFF2369D86810B9204604F0F3FABD
:10342000E369206143440360A3680782A0334360DB
:1034300000238374E368DB68002B02DD204601F083
:1034400045FC94F82830DB0705D5204600214FF0D5
:10345000FF32FFF749FF2046A847A168A1EBC00152
:103460002046FFF77BFF0120BDE8F0872B68A269AB
:10347000DE68A36896F84E105D1BD31AED10B1EB11
:10348000E30F05F1FF3502DB2046FFF7E1FE96F87A
:103490004CA0554507DAA36803F10802A260002298
:1034A0005A600135F3E796F84D3023B9E369984443
:1034B00008F1080924E0A269A36896F84E10D31A0F
:1034C000B1EBE30F02DB2046FFF7C2FED4F8089011
:1034D0000023A9EBC505534505F108050EDAA168DF
:1034E00001F10802A26055F8082C0A6055F8042C76
:1034F0004A60002245F8042C0133ECE7E369984464
:103500002369DD681DB9204604F07DFA0546256172
:10351000C5F818902F82C5F8008096F84E30F268F2
:10352000EA61012209EBC303AA746B60A360E3683C
:10353000DB68002B02DD204601F0C8FB94F8280070
:1035400010F0010056D0EB690433EB61AB68997C55
:1035500011F001010DD0DB6913F8043C03F03F03C7
:103560001E2B05D1AB7C43F04003AB74042100E07B
:10357000002120464FF0FF32FFF7B6FEEB69043B17
:10358000EB610020BDE8F08720462946102205F0B7
:10359000F3F8E369C3EB0508436803F00F03062B58
:1035A000064604D020462946134AFFF79BFCA26832
:1035B0001346AB420BD9C2EB030CA2F10800083B47
:1035C0005CF80010996060444168D960F1E7A36934
:1035D0000832A2609A1A072A03DC20460021FFF76E
:1035E00037FEE369326843F8082003EB0805736887
:1035F0006B60F4E6BDE8F0873E4B020010B5044670
:10360000236904F14802934230D09A7CD10726D432
:10361000D00604D522F010029A741A6A6264B3F9D3
:103620001020013205D12269A1685068884238BF54
:1036300051609A7C910622F0380258BF012142F075
:10364000080258BF83F825109A742046DB69984712
:10365000A168A1EBC0012046FFF780FED0E720461D
:1036600005F08BFE204605F007FFC9E710BD0000FE
:103670000A46C18C0369C72970B5044601DD1E499D
:1036800006E0817991B900F148018B4202D01B49D3
:10369000FFF703FDA2F108014FF0FF32FFF79AFE9A
:1036A00048BB2046BDE8704005F0E6BE012901D0C8
:1036B0001349EDE700258571C6695D6935449E7C37
:1036C0001D60F50702D505F0D7FE0EE0DD6945B1B6
:1036D00046F0080683F825109E74A847A268A2EB5E
:1036E000C00220461146FFF739FE20460021BDE802
:1036F0007040FFF783BF70BD623A0200733A020068
:103700009937020070B5C58C0135ADB2C72D04469E
:103710001E46C58409D9C82D02D10D49FFF7B2FB59
:10372000E02D02D90621FFF795FC16B9A38C0133D1
:10373000A3842046FFF74EFE10B9204605F09CFEFC
:1037400016B9A38C013BA384E38C013BE38470BDD9
:10375000623A02002DE9F0410446B0F8248019B124
:10376000CB8C01339BB200E00123E3840023A384CC
:10377000A3682549A3EBC2022046FFF705FD421CC2
:10378000064612D0012E37D9256925B1AB7CDB0660
:103790000DD4AD68F9E7A268A67120463146FFF75F
:1037A00037FC2369A2685A6026E0022624E06B6990
:1037B000E7691F443946204600F058FA31463A4638
:1037C0002046FFF725FC256195F8243084F8293040
:1037D00000272046A784FFF767FD2B6A6364AB7C54
:1037E00085F8256043F02003AB74204607493A462C
:1037F000FFF7CAFC0646C5E7E38CA4F82480013B2A
:10380000E3843046BDE8F08171360000FD350000EC
:10381000F8B5868C0569044646B1C368D3F8903084
:10382000984214BF0E490F49FFF72CFB0120A071ED
:103830002F68E069381A6861A87CC0070DD4EB6175
:1038400003B1AA61A2686FF0070301FB03331A44B6
:103850002A6020460121FFF7FDFB3046F8BD00BF7E
:10386000993A0200C33A02002DE9F047089D476CDF
:10387000456404461E46D0F810A090F82990B0F890
:103880002480FFF781FC054698B1E2691644204682
:10389000314600F0EBF9204629463246FFF7B8FBE7
:1038A000C4F810A084F82990A4F824802046FFF7DB
:1038B000FBFC67642846BDE8F087000070B592B055
:1038C000848C86681093C36911920134426C84849D
:1038D000039100240092F31A03AA1849079405469D
:1038E00009940A940C940D940F9404940694FFF791
:1038F000BBFF0499069A06462346284601F09CFF22
:10390000099A04900799069423462846520001F02C
:1039100093FF0C9A0A9923462846120101F08CFF66
:103920000F9A0D9923462846120101F085FFAB8CB2
:103930003046013BAB8412B070BD00BFF1300000D7
:10394000F8B5136907460E46144633B992E82100CC
:1039500039463246A368A8472061F8BD07B502ABD7
:103960000A4603F8010D01211846FFF7E9FF03B0ED
:103970005DF804FB07B502AB0A4643F8040D0421C9
:103980001846FFF7DDFF03B05DF804FB37B50D46C1
:10399000044618B90190042101A80AE0C368042173
:1039A000013301A82A460193FFF7CAFF019904F1E8
:1039B00010002A46FFF7C4FF03B030BD2DE9F347DE
:1039C00005460C46006CFFF7D5FF686C2146FFF7F3
:1039D000D1FF95F84C002146FFF7C0FF95F84D0048
:1039E0002146FFF7BBFF95F84E002146FFF7B6FFD3
:1039F0002E6BEF6830462146FFF7BCFFB10038461A
:103A00002246FFF79DFFD5F82CA021465046FFF730
:103A1000B1FF002656452CDAD5F80880F70008EBF0
:103A200007092146D9F8040000F00F00FFF796FFC0
:103A3000D9F8043003F00F03032B09D0042B11D065
:103A4000012B14D158F807002146FFF787FF0EE03D
:103A500002A8D9F8003040F8043D04212246FFF7BF
:103A60006FFF04E058F807002146FFF78FFF01368B
:103A7000D0E7AF6B21463846FFF77CFF0026BE42F9
:103A800007DA2B69214653F82600FFF797FF013626
:103A9000F5E7AF6A21463846FFF76CFF0026BE42C5
:103AA0000FDAEB694FEAC608434421461879FFF75D
:103AB00055FFEB69434421465879FFF74FFF013624
:103AC000EDE7E3680BB9686A00E000202146FFF7E4
:103AD0005DFFE3680BB96E6B00E000266F6930464E
:103AE0002146FFF747FF3846B1002246FFF728FF7F
:103AF000E3680BB9EF6B00E0002738462146FFF77B
:103B000039FF0026BE4217DA4FF00C0808FB06F812
:103B1000AB69214653F80800FFF738FFAB6943440F
:103B200021465868FFF726FFAB6943442146986851
:103B3000FFF720FF0136E5E7E3680BB9AF6A00E065
:103B4000002738462146FFF715FF0026BE4207DA58
:103B5000EB69214653F83600FFF718FF0136F5E709
:103B600002B0BDE8F08710B58AB00C4607930C9BF5
:103B700005900893684600230993069204F0B4FF69
:103B8000684605AA1221FFF7DBFE204605A9FFF7CC
:103B900015FF09980AB010BD13B50023CA000C46E2
:103BA00000932621103200F030FF847102B010BD66
:103BB00037B500258A000C462B46009506211032A9
:103BC00000F023FF231DC560847100EB830314F113
:103BD000FF3403D3002243F8042DF8E703B030BDCF
:103BE00013B5002400940A211422234600F00DFF8F
:103BF00000F10C028260046102B010BD37B5C468E8
:103C00000D4600F138031A6872B9002200920A21A9
:103C1000142200F0FAFE04F16003C360236F856094
:103C20000361D860206711E09168A942EDD30AD101
:103C3000537994F8301083F0030381F003010B42B1
:103C400003D1537101E01346DDE7104603B030BDE8
:103C50008B6801F10C02934204D00B69CA68DA60E8
:103C6000CA6813611422002301F0E6BD70B5C46870
:103C700005460E46A96B21B38B68B34221D30A686F
:103C8000AA6394F830004A7980F0030082F00302BE
:103C9000104203D12846FFF7DBFFEBE70A69C8684B
:103CA000D060C86802611A685B680B6101F10C039F
:103CB0008B60A36BCA600B602046A16300F082FE9C
:103CC000D8E770BD13B50024009409215022234683
:103CD00000F09BFE8460C46204618463C46004627B
:103CE000046344614463C461846280F84C4080F89A
:103CF0004D4080F84E408461C4630464446444626F
:103D000002B010BD0A6B70B50C469200C968002362
:103D1000054601F091FDA26B21692846920000231F
:103D200001F08AFDE26AA1682846D200002301F072
:103D300083FD626B616928469200002301F07CFDDF
:103D4000E36BA1690C225A432846002301F074FD5D
:103D5000A26AE1692846D200002301F06DFD2846E1
:103D6000214650220023BDE8704001F065BD70B5CA
:103D7000C66B0023B34210DA84690C2505FB0344AB
:103D80006568954209DCA568AA4204DA013902D1C6
:103D90002068103070BD0133ECE7002070BD38B5ED
:103DA0004B7923F003034B710B79082B05460C4626
:103DB0003FD00AD8052B39D002D8042B0DD038BDFE
:103DC000062B30D0072B0BD038BD0A2B1AD033D39B
:103DD000142B02D0262B26D038BDE36811332FE0F8
:103DE000896821B14B799B0701D0FFF7D8FFE168C3
:103DF00029B14B79980702D02846FFF7D0FF2369F5
:103E000018331DE08B685A68520605D519684B793E
:103E10009B0701D0FFF7C3FFA36804F10C02934294
:103E200015D114230CE0AB6CA36007E0836C8B61AD
:103E300004E0836CCB6301E0836C8B64AC6438BDBD
:103E4000627942F0040262712A6913442B6138BD21
:103E500070B50546044600F12406D4F8E01029B1F7
:103E60004B799B0702D02846FFF799FF0434B442F0
:103E7000F3D170BD38B5C46D054674B1637995F85A
:103E8000302023F0470302F00302134363712146FD
:103E90002846FFF784FF2468EFE738BD2DE9F74F88
:103EA000C36893F830A093F832300E46022B8AF0A4
:103EB00003010546019106D00AF0030A4FF00008FD
:103EC0006FF0470B04E04FF04008C2464FF0FF3B55
:103ED00017463468002C74D0002F6ED094F80590EB
:103EE000019A89F00303134044D122683260227999
:103EF000082A34D012D8052A2CD006D8042A5AD140
:103F0000EB68DA69013ADA612EE0062A15D0072A51
:103F100051D1226928462146183213E00A2A14D0CA
:103F200006D3142A20D0262A45D1A279D20006E051
:103F300028462146FFF7E6FE3DE0A279920028469A
:103F40002146103201F078FC35E028462146FFF783
:103F50007FFE30E02846214604F01EF92BE028467B
:103F6000214603F07CFE26E0E26828462146113215
:103F70000023E7E718EA090F21D12379082B13D191
:103F8000E3698BB104F138016FF002022846FFF7B4
:103F900085FF204603F044FDEB6893F83230012B97
:103FA00002D02046FFF780F90BEA090C4CEA0A0C14
:103FB00084F805C02646013F8BE7304602E000202A
:103FC00000E0204603B0BDE8F08F00002DE9F0438B
:103FD000C568EB6D1A68EA65AA6B1A60AB635A791B
:103FE00002F0EF025A710F4695F83110012985B0A1
:103FF000044607D995F8301022F0470201F003017A
:104000000A435A7102931B79204643F0400302A9E8
:104010000222039304F0B0FB00283CD0436803F075
:104020000F03062B37D1002295F8338094F829909E
:1040300084F8292085F83320A36801681960416855
:10404000596002999960E6690399D96003F11001FA
:10405000A1600092114920469B1BFFF705FC84F8E4
:104060002990014685F83380A8B1A7B102280FD165
:10407000A3680B4953F8042C02F00F02042A0ABF6C
:1040800053F8082C074A1032204601F043FE052160
:104090002046FEF7DFFF05B0BDE8F083C940000011
:1040A000F83A0200ED3A020070B5C56804460E46C3
:1040B000EB6D43B15A7922F040025A7120463146E5
:1040C000FFF784FFF4E770BD8168002210391346C2
:1040D000FFF718BB642391FBF3F30949D0F8802064
:1040E00010B591FBF3F4A242B8BF02FB03F1826862
:1040F000C3681344591ABDE8104003F07DBC00BFEB
:10410000FCFFFF7FC3685A0605D583685B799B0770
:104110001CBF0B23C36070474A6808B512F0400308
:1041200012D002F00F02042A096808D159B14B7964
:1041300013F0030308D0FFF732FE002304E04B79AD
:1041400003F0030300E00B46184608BD2DE9F047D5
:10415000CB794FF0140A0AFA03FA0B6900260546D8
:104160000C469A44B146E3699E4211DAE36803EBD8
:10417000C6025268520609D553F836104B799F078C
:1041800004D02846FFF70BFE4FF001090136EAE79D
:1041900026694FF0000808364746A6F1080050454A
:1041A00028D256F8043C13B9FFF7ACFF20E02846AC
:1041B0003146FFF7B1FF56F8043C38B1580612D526
:1041C00056F8083C5B7999070FD10CE05A060FD5D9
:1041D00056F8081C4B799B070AD02846FFF7DFFDED
:1041E0004FF0010904E0012702E04FF001084746C3
:1041F0001436D2E7B8F1000F03D06B6DA3616C6584
:1042000007E01FB1AB6DA361AC6502E0EB6CA3618D
:10421000EC644846BDE8F0872DE9F041846C637991
:1042200043F0040363712379082B054600F0D18025
:1042300006D8052B0CD0062B00F09980BDE8F08144
:10424000092B00F00581262B00F0AC80BDE8F08141
:10425000A3698364A06838B18379190706D4032160
:10426000D5F8A82004F078FA064600E00026A168F8
:1042700029B14B799A0702D02846FFF790FD9EB1ED
:10428000736803F00F03042B0ED1376810376B21CE
:10429000384619F094F876210646384619F08FF81A
:1042A000002E3FD100283DD1E37914279F40236998
:1042B00000261F44E3699E420FDAE36803EBC6025F
:1042C0005268510607D553F836104B799A0702D039
:1042D0002846FFF764FD0136ECE726691436A6F19F
:1042E0001400B8423AD256F8103C13B9FFF70AFF4F
:1042F000F4E756F8083C5B0607D556F80C1C4B79DA
:10430000980702D02846FFF74AFD56F8103C5A0697
:10431000E4D556F8141C4B799B07DFD02846FFF7ED
:104320003EFDDBE7637923F004036371002E40F068
:104330001981E769E37926694FF01408002F08FA1C
:1043400003F8B044D4BF002701274645C0F0EA80F7
:10435000002F00F003812B6DA3612C65E369E279E6
:104360001421043301FA02F202EBC303D5E0E16841
:10437000A368836421B14B799E0701D0FFF70FFD3D
:104380000026A3799E420BDA04EB8603196929B152
:104390004B79980702D02846FFF701FD0136F0E778
:1043A0009B0014E0A368836426460027A3799F42FC
:1043B0000CDA7369590606D531694B799A0702D030
:1043C0002846FFF7ECFC01370836EFE7DB00103337
:1043D000A3E0E36B8364C36CE363C4646379E6695D
:1043E00023F0040363718EB30836A368A6F10801B5
:1043F00099420CD256F8043C5B06F5D556F8081CD9
:104400004B799F07F0D02846FFF7C9FCECE795F8F9
:104410003130012B0AD1226AE36903EBC2039942CE
:104420004FF000020BD24A600831F8E7216904F12D
:10443000480300228B4202D00132DB68FAE7236A8C
:1044400002EB82020E331344DB0066E0012364E0DA
:10445000A36C8364236A23B15B799E071CBF00238E
:104460002362616A29B14B79980702D02846FFF789
:1044700096FC0026E36A9E420FDAA36803EBC602AD
:104480005268520607D553F836104B799F0702D071
:104490002846FFF784FC0136ECE70026A36A9E421B
:1044A0000BDAE36953F8361029B14B79980702D03B
:1044B0002846FFF774FC0136F0E70026A36B9E4206
:1044C0000BDA236953F8261029B14B799A0702D0E9
:1044D0002846FFF764FC0136F0E70026E26B9642BF
:1044E0000CDA0C22A3697243995829B14B799B07C6
:1044F00002D02846FFF753FC0136EFE7A36B216B90
:10450000A06A1944636B14310B44E16A014403EB64
:10451000410302EB420213449B002A6913442B61BE
:10452000BDE8F08173681BB93046FFF7EBFD13E07F
:10453000F3685B0606D5B1684B79980702D0284628
:10454000FFF72DFC3FB928463146FFF7E5FD071C74
:1045500018BF012700E001271436F6E6EB6CA361D3
:10456000EC64FBE620B928462146FFF7EFFDF5E6AF
:10457000AB6DA361AC65F1E610B50446A36C1BB14D
:104580002046FFF749FEF9E710BD70B50446002547
:10459000616D656551B120468E69FFF7D7FD18B191
:1045A0002046FFF7E9FF01253146F3E7002DEED164
:1045B00070BD2DE9F84306460C469046444529D087
:1045C000E3794FF0140909FA03F9236900259944A6
:1045D000E3699D420BDAE76807EBC50730463946C9
:1045E000FFF79AFD08B100237B600135F0E72569EC
:1045F0004D450DD26B684BB130462946FFF78CFD17
:1046000020B100236B602846FFF77CFD1435EFE7EF
:10461000A469D3E7BDE8F88310B500F13C025C3033
:1046200003683BB11846FBE75C7914F0030F05D132
:1046300021B91A461368002BF6D109E044F00804AA
:104640005C711C68146004681C6003601846F1E724
:1046500010BD2DE9F04107460D46EDB1EB792C690F
:104660004FF0140808FA03F8A0440834A4F108062F
:1046700046450FD254F8043C53B138462146FFF763
:104680004BFD28B1002344F8043C3046FFF73AFDC7
:104690001434EBE7AD69E0E7BDE8F0812DE9F041C6
:1046A000C46802230027054684F83130676304F1AB
:1046B0003C06284631460122FFF7F0FBB04207F1E5
:1046C0000107F6D0606404F1380800262846414608
:1046D0000122FFF7E3FB404506F10106F6D0206416
:1046E000B819BDE8F0812DE9F04FC56895F8313073
:1046F00085B00646052B00F22F81DFE813F02F006E
:104700002D010600F400000108000024DAE02B6A05
:10471000D5F890109B002B610023EB64AB646B65B4
:10472000AB652B6529B14B79980702D02846FFF776
:1047300036FBAB6A590606D5696A4B799A0702D0EF
:104740002846FFF72CFB2846FFF782FB2846FFF799
:1047500091FB002385F831302869FEE0AB6C2C69B1
:104760002BB12846FFF758FD2869001BF5E001230F
:1047700085F831306C61C468737920699B07C0F19A
:10478000000803D020463146FFF709FBA36A5F0605
:1047900006D5616A4B79980702D02046FFF7FFFAE9
:1047A0002046FFF755FB276F04F160039F420FD0AF
:1047B0007B7959070AD1BB685A68520606D5196831
:1047C0004B799B0702D02046FFF7E9FA3F69EBE7F8
:1047D00000272046FFF7D0FED4F850B0D4F854900C
:1047E000E36C6765E76427652046D4F810A0009362
:1047F000FFF7C2FE009BA3642046FFF7BDFEC4F88E
:1048000048B02046FFF7B8FEC4F848902046FFF7AE
:10481000B3FE2046D4F81090FFF7B7FE2046216D76
:104820003A46FFF7C6FE2046A16D3A46FFF7C1FEA5
:10483000A36D226DF068D4F810B000933946019250
:10484000FFF7EAFE2046FFF715FB2046FFF794FE30
:1048500020462769FFF799FE2046616DFFF7F9FEB4
:104860002046A16DFFF7F5FE2046216D019AFFF766
:10487000A0FE009BA16D20461A46FFF79AFE94F811
:10488000303083F0030384F830302369DA440AEBD4
:104890000304C9EB04046B69E41B444423446B61C7
:1048A0003046FFF7FBFE00EB8000204455E0A9698D
:1048B000304601EB83016FF002020134FFF7EEFA9C
:1048C000502C04D06B6B2A6A23449342EFDB6B6B52
:1048D0002A6A234493426B63A4BF032385F83130D3
:1048E00004EB840039E0696C21B15022FFF7D6FA5D
:1048F00068640AE0042385F8313008462DE0296C0D
:1049000031B15022FFF7CAFA28644FF4C87024E08E
:1049100004A9D5F8903041F8043D0122FFF7BEFA12
:10492000F46894F83230012B12D0236A022193FBF1
:10493000F1F1E3698B4202D2304603F0E0F9002343
:104940003046616FE26F00F077FF00236067E36736
:10495000052085F8310000E0002005B0BDE8F08FAB
:10496000C0680B4690F83110012902D81146FFF7B4
:1049700016BA90F830105A7901F0030122F047027C
:104980000A435A7170474A79C36822F004024A7197
:10499000DA6C8A61D964704770B50D6AC4684DB924
:1049A0005479A4070DD04B795B070AD5BDE8704058
:1049B000FFF7D6BF4A7922F004024A71E26C8A649A
:1049C000E16470BD4B795A071ED190F83220022A5B
:1049D00003D090F83120012A0ED823F0400343F091
:1049E00004034B718B685A6852060DD519684B79D0
:1049F0009B0709D0FFF7D3B990F8302023F0470385
:104A000002F0030213434B717047F8B596460E4609
:104A10001C460021734606F00F02069DC76800F091
:104A20000BFF43190CB907F1380497F830201E71B9
:104A300002F003025A712268425123601846F8BD01
:104A4000F8B54B79C56813F0180F07460C4638D1F6
:104A5000002A36D093795B0733D410460221D5F86B
:104A6000A42003F079FE60B32E6CA64207D138462D
:104A700031460122FFF712FAB042F8D0286405F15E
:104A800038031A68A24201D01346FAE722681A6076
:104A9000EB6B2360EC63637943F01002627195F86D
:104AA0003110012908D995F8303022F0470203F07F
:104AB00003031A436271F8BD23F0400343F010036F
:104AC0006371F8BD70B5C468054601212046FFF743
:104AD000A3FD28460021FFF7E7FA0026032304F18F
:104AE0003C016FF0020284F8303084F832602846CE
:104AF000FFF7D4F9284604F138016FF00202FFF7FE
:104B0000CDF9236A9E4209DAA169284601EB8601A4
:104B10006FF00202FFF7C2F90136F2E770BD70B51F
:104B2000C56804460E4695F8313046FA03F3DB07B4
:104B300003D42046FFF7D7FDF5E770BD70B5C46814
:104B400094F83230994206460D4617D0022909D111
:104B50000121FFF7E4FFE268A36884F832501344B0
:104B6000636170BD002384F83230FFF797FD304653
:104B70006FF01C01BDE87040FFF7D1BF70BDF8B504
:104B8000C468054694F832700E4619B1012384F8C2
:104B9000323004E084F832100121FFF785FA94F8EE
:104BA0003230022B03D094F83130012B02D8284642
:104BB000FFF774FD28462021FFF7B1FF28466FF06C
:104BC0002001FFF7ACFF28462021FFF7A8FF022FA6
:104BD00003D128460121FFF7A2FFE168A36884F80A
:104BE000327020461944FFF775FA2EB92846012184
:104BF000BDE8F840FFF758BAF8BD0000F8B5C46842
:104C000094F83230022B074621D165693DB9294617
:104C1000FFF7B5FFE268A3681344636112E0202147
:104C2000FFF77DFF002384F83130E268A368642138
:104C30001A44D4F88430B5FBF1F14B439A4288BF53
:104C400000256561E168A3682046194420E0E36817
:104C5000D4F88850C82693FBF6F31B4E282DB8BF16
:104C60002825013396FBF5F29342B8BF05FB03F606
:104C70003846FFF738FD361A16F5C86F94F831300C
:104C800002DC052B08D101E0052BF1D1616920463A
:104C9000FFF720FA00250EE096FBF5F5C821204627
:104CA000694302F0A9FEF5E7032D08DC384601212F
:104CB000FFF78CF90135E36D002BF5D103E094F893
:104CC0003130052BF2D0F8BDFCFFFF7FC36893F8AD
:104CD00033200AB1FFF792BF1846014902F08CBE9B
:104CE000C0F9FFFF10B509C813F1FF3304D3C45C4A
:104CF0008C4208BFC254F7E710BD000038B5054626
:104D00000124084B03EB8403284653F8041C03F0EA
:104D1000C7F842798471013442F02002172C4271A5
:104D2000EFD138BDA43C0200B1F5807F10B5034639
:104D30000A4608DC0D49006A114449784C074CBF0B
:104D40000B490C490BE06FF4807150180A49B2F519
:104D50008F7F51F8204006DA186A08492246BDE8DC
:104D6000104000F0D7BF204610BD00BF133802002E
:104D7000163B02001B3B0200A43C02001B57020032
:104D800080B50E46016B92B00446103103A815465B
:104D90003C2200F0CDFF0096206A1249636803AA06
:104DA00000F0B8FF0646CDB16FF48F73EB18022BFD
:104DB000276A204609D8002100F01AF8A36A206A61
:104DC00009491A6800F0A6FF02E02946FFF7ACFF88
:104DD000034606493846324600F09CFF206A03210C
:104DE000FEF738F96D3902001B570200243B020020
:104DF00070B5846A6568A268013595420E460ED981
:104E00000A498A4203D90A490022FFF7B9FF55002F
:104E1000006A21682B4600F00FFDA560206094E831
:104E20000C00591C6160D65470BD00BFFDFFFF7FB0
:104E30002F3B020070B5066804463146FFF7D8FFE5
:104E4000606A03685A1E026023B143685A1C4260BC
:104E5000187801E005F0EAF82060002521683D2976
:104E600011D12046FFF7C4FF606A03685A1E026032
:104E700023B143685A1C4260187801E005F0D6F867
:104E800020600135EAE7B14214BFE843284670BD0F
:104E900038B504680546C4B10846214618F08FFAB3
:104EA00090B128462146FFF7A3FF686A0268511EA9
:104EB000016022B14268511C4160107801E005F0A8
:104EC000B5F82860012400E00446204638BD2DE9ED
:104ED000F0421F46836A00240E465C605C21054652
:104EE0009146FFF785FF4C45284607DA56F824100F
:104EF0004B1C03D0FFF77CFF0134F4E7394640F246
:104F00002112FFF73DFF08B5C268FFF739FF000027
:104F100038B505680446406A03685A1E026023B12A
:104F200043685A1C4260187801E005F07FF80A28AF
:104F3000206001D00D280ED1A8420CD0606A036811
:104F40005A1E026023B143685A1C4260187801E07F
:104F500005F06CF820606368044A01339342636093
:104F600003DD20460249FFF7CEFF38BDFCFFFF7F7F
:104F7000483B020070B5046A0646204602F010FF66
:104F8000A36803F10802A2601860027942F04002AF
:104F90005A60F369A26859680546083A204603F04A
:104FA0005BFB436853B9012303604360E368DB683C
:104FB000002B04DD2046FFF789FE00E08568A3682A
:104FC000083BA360284670BDF8B504460D4601684D
:104FD0001646FFF70DFF606A03685A1E026023B190
:104FE00043685A1C4260187801E005F01FF80A284F
:104FF000206001D00D2802D12046FFF789FF2168EB
:105000000A2929D00BDC4B1C32D12A4B2A492046D5
:10501000002D18BF19464FF48F72FFF7B1FE0D290E
:105020001AD05D2924D12046FFF704FFB04207467D
:10503000E5D120462168FFF7DBFE606A0268511E59
:10504000016022B14268511C4160107801E004F017
:10505000EDFF2060F5B9F8BD20460A21FFF7C8FE34
:105060002046FFF755FF002DC9D1A36A5D60C6E752
:1050700015B12046FFF7BCFE606A03685A1E026045
:1050800023B143685A1C4260187801E004F0CEFF57
:105090002060B4E7A26A6FF0010316685268DB1B58
:1050A000B91C2046314402EB4302FFF763FF28603E
:1050B000F8BD00BF613B0200783B02002DE9F043E0
:1050C000836A002285B004460F465A6025682D2D5C
:1050D00045D017DC0C2D08DC0B2D32DA092D30D031
:1050E0002BDC691C00F04E8300E3202D29D002DC6C
:1050F0000D2D22D0FAE2222D00F02581272D00F07F
:105100002281F3E23C2D00F09E800CDC392D06DC80
:10511000302D80F275822E2D00F04A82E6E23A2D83
:1051200000F0F180E2E23E2D00F0AD806BDB5B2D04
:1051300059D07E2D00F0C780D8E22046FFF7E8FE68
:10514000C4E7606A03685A1E026023B143685A1CB0
:105150004260187801E004F069FF2060B6E7636AF6
:105160001A68511E196022B15A68511C5960107892
:1051700002E0606A04F05AFF2D28206040F00783A7
:10518000606A03685A1E026023B143685A1C426079
:10519000187801E004F04AFF5B2820601CD120460B
:1051A000FFF748FEA36A0025021E5D6014DB20465F
:1051B0002946FFF709FFA36A5D6087E70D2B85D0BD
:1051C000013383D0606A03685A1E026043B14368AA
:1051D0005A1C42601878206023680A2BEED175E7CC
:1051E00004F024FFF7E72046FFF724FE021E04DB4D
:1051F00020463946FFF7E8FED7E1013200F0C782CA
:1052000020469849CAE0606A03685A1E026023B1CA
:1052100043685A1C4260187801E004F007FF3D28FB
:10522000206040F0B482606A03685A1E026023B1B5
:1052300043685A1C4260187801E004F0F7FE2060D1
:1052400040F21915A3E2606A03685A1E026023B196
:1052500043685A1C4260187801E004F0E7FE3D28DC
:10526000206040F09482606A03685A1E026023B195
:1052700043685A1C4260187801E004F0D7FE2060B1
:1052800040F21B1583E2606A03685A1E026023B174
:1052900043685A1C4260187801E004F0C7FE3D28BC
:1052A000206040F07482606A03685A1E026023B175
:1052B00043685A1C4260187801E004F0B7FE206091
:1052C0004FF48D7563E2606A03685A1E026023B171
:1052D00043685A1C4260187801E004F0A7FE3D289C
:1052E000206040F05482606A03685A1E026023B155
:1052F00043685A1C4260187801E004F097FE206071
:105300004FF48E7543E2606A03685A1E026023B14F
:1053100043685A1C4260187801E004F087FE3A287E
:10532000206040F03482606A03685A1E026023B134
:1053300043685A1C4260187801E004F077FE206050
:1053400040F21D1523E2204629462CE03BDD0D29C5
:1053500022D05C2926D1636A1A68511E1960002A7E
:1053600038D05A68511C59601678622E266000F0B9
:10537000EF803DDC222E00F0EC8030DC0A2E00F0C5
:1053800081800D2E7ED0731C40F0A9802168A94237
:1053900000F0F1800A29D9D13349204640F2211288
:1053A000FFF7EEFC2046FFF723FD606A03685A1EF4
:1053B000026023B143685A1C4260187801E004F08F
:1053C00035FE2060E2E74A1CECD1204626494FF426
:1053D0008F72E5E7606A04F029FE0646C5E75C2E99
:1053E00000F0B780612E00F0B180272E77D1B0E0B9
:1053F000742E14D007DC6E2E0DD0722E0DD0662EBA
:105400006DD10C26A5E0782E0BD07A2E3FD0762ECB
:1054100065D10B269DE00A269BE00D2699E0092622
:1054200097E001964FF001080026636A1A68511E42
:10543000196022B15A68511C5960107802E0606A04
:1054400004F0F4FD094B2060034401A95B7841F8A6
:10545000280013F0100F08F101080BD12046424636
:10546000034B71E0963B0200B43B0200133802008C
:10547000C63B020000F0C6FA3601B8F1030F06443D
:10548000D3D166E02046FFF743FD0A266EE0606A4E
:1054900003685A1E02602BB143685A1C4260187898
:1054A00002E0606A04F0C2FD206023689A4A1A4450
:1054B000527810077FF56AAF0A2B01D00D2B03D16C
:1054C0002046FFF725FDF0E7636A1A68511E196050
:1054D000002AE6D05A68511C59601078E4E78E4BD8
:1054E0001E449946727812F0020F02D00026B04690
:1054F0001AE0204621460122884B25E001AA606A75
:1055000042F828300A2202FB063603685A1E303E53
:10551000026083B143685A1C4260187808F10108A0
:10552000B8F1030F206009D0236809EB0302527819
:105530009107E3D402E004F079FDEFE7FF2E15DDDB
:10554000774B204601A94246FFF7C1FC072600E041
:105550000826606A03685A1E026023B143685A1C19
:105560004260187801E004F061FD20602046314679
:10557000FFF73EFC0AE720462946FFF739FC606A40
:1055800003685A1E026023B143685A1C42601878AF
:1055900001E004F04BFDA36A206093E8060020467A
:1055A0000131023AFFF7E6FC386040F22115EEE0E7
:1055B00020462946FFF71CFC606A03685A1E0260F9
:1055C00023B143685A1C4260187801E004F02EFDB4
:1055D000206054492046FFF75BFC50B120465149FA
:1055E000FFF756FC40F21715002818BF4FF48C75D2
:1055F000CDE0494A236813445B789A0740F1C7809D
:10560000256820462946FFF7F3FB606A03685A1EA7
:10561000026023B143685A1C4260187801E004F02C
:1056200005FD302D206001D03F4D06E020463F496A
:10563000FFF72EFC0028F7D03D4D20462946FFF706
:1056400027FC18B120463B49FFF722FC2368324A69
:105650001A442046527802F0100202F0FF010AB903
:105660002E2B10D11946FFF7C3FB606A03685A1E40
:10567000026023B143685A1C4260187801E004F0CC
:10568000D5FC2060D9E7FFF7B3FBA06A94F8382077
:105690002E21FFF727FBA36A93E803003A4601395E
:1056A00000F0E4F910B140F21F1570E094F83850A2
:1056B00016F032FD0368A06A1A7884F8382029466B
:1056C000FFF710FBA36A93E803003A46013900F0A4
:1056D000CDF90028E7D1A06A94F838102E22FFF700
:1056E00001FB2046144940F21F1259E60A4B5A1991
:1056F0001E46527812F0010F36D020462168FFF77F
:1057000077FB606A0268531E0360BAB14268531C9B
:105710004360107814E000BF13380200E13B020040
:10572000F93B020028440200903B0200123C0200B8
:10573000933B0200153C0200183C020004F076FC8A
:105740002060304443789B07D7D1A36A204693E872
:105750000600FFF70FFC38600379042B15D185791B
:105760009DB105F5807512E0606A03685A1E0260FB
:1057700023B143685A1C4260187801E004F056FCDB
:10578000206004E04FF48F7501E04FF490752846D7
:1057900005B0BDE8F08300BF38B50C462E2184F873
:1057A000381062620499216000224FF48F71E26127
:1057B000012261616260A26023630A49206202F0F3
:1057C0006FFB6063437943F020034371A56A206A4D
:1057D000AA682968202300F02FF8A36A28602022F5
:1057E0009A6038BD41390200436810B5836043694F
:1057F000B3F58F7F04460BD000F1140200F10C03C7
:1058000092E8030083E803004FF48F73636110BDD7
:1058100000F11001FFF752FCE06010BD10B500F17F
:1058200018010446FFF74AFC606110BD08B5014944
:10583000FDF728FB283D02002DE9F047C468064625
:105840002768606890461D468A46002914BF914625
:105850004FF00009B84798B995B194F833301BB9A7
:1058600030460421FDF7F6FB30460121FFF787F9AA
:1058700027686068514642462B46B8470028EFD05B
:10588000E3681D44C9EB0505E560BDE8F08700004D
:10589000F8B5069C15681646022294FBF2F2954272
:1058A000074606DBA54208DB0C49079A2346FDF7AD
:1058B000E9FA6C00042CB8BF04246FF00202601CEB
:1058C000B2FBF3F29042384601D9FFF7AFFF03FB7A
:1058D00005F26343FFF7B0FF3460F8BD4F3D0200AF
:1058E00038B5846804F10805856002F059FA206033
:1058F000037943F04003636038BD07280AD90023C9
:105900000F2803F1010302D901304008F8E70838F5
:1059100040EAC3007047C0F3C40323B100F007009E
:105920000830013B9840704701380022FF2802D917
:105930000832000AFAE70249085C1044704700BFC9
:10594000693D0200F8B52DED028BB0EE408AF0EE15
:10595000608A06284ED8DFE800F004070A0D1033ED
:105960004A0030EE200A47E030EE600A44E020EEC4
:10597000200A41E080EE200A3EE0C0EE207A17EED9
:10598000900A1DF091FA41EC100B10F0A5FB18EEF7
:10599000100A57EC106B1DF087FA044618EE900AB7
:1059A0000D461DF081FA02460B46304639461DF081
:1059B000CFFA02460B46204629461DF015F911E0A4
:1059C00010EE100A1DF070FA044618EE900A0D460B
:1059D0001DF06AFA45EC104B41EC110B11F0B0F9D7
:1059E00051EC100B1DF096FD00EE100A04E0B1EE34
:1059F000400A01E09FED020ABDEC028BF8BD00BF3A
:105A000000000000044B03445B789B074EBF303816
:105A100040F02000573870471338020070B5044634
:105A20002DED028B0E46B0EE408A25680E4B28788D
:105A300003445B78DB0611D5FFF7E4FF07EE100A9D
:105A4000F8EEC77AB3EE007AE8EE077A33680135EC
:105A500001333360B0EE678A2560E6E7B0EE480AAE
:105A6000BDEC028B70BD00BF133802002DE9F0437E
:105A7000884685B05A490446164618F050FB05463C
:105A800008B10020A8E02046564918F048FB00283D
:105A900000F087800194029503950094019B524F7A
:105AA0001A78B918497801F0080101F0FF0911B11D
:105AB00001330193F2E72D2A04D1013301934FF012
:105AC000010903E02B2A04BF01330193019B1A78DB
:105AD000302A01D000206CE05A7802F0DF02582A08
:105AE000F8D104AD023345F80C3D9FED400A28463D
:105AF00003A9FFF793FF019B1A782E2AF0EE407A54
:105B000007D10133284602A90193FFF787FFF0EE82
:105B1000407A039A029B0AB9002BDBD06FF0030096
:105B20005843019B029000931A7802F0DF02502A3A
:105B300026D15A1C01925A782D2A03D1023301939F
:105B4000012204E02B2A04BF023301930022019BAF
:105B50001B783B445B789B0714D5002301990D7893
:105B60003D446D78AD0707D54D1C019509780A2590
:105B700005FB0313303BF1E702B15B4203440293A0
:105B8000019B0093B9F1000F01D0F1EE677A17EE97
:105B9000900A1DF089F941EC100B029810F06EFB91
:105BA00003E02046694619F04FF951EC100B1DF047
:105BB000B1FC009B3060A3423FF463AF00980A4AF7
:105BC000037813445B781A0702D501300090F5E79B
:105BD0004444031B5842584105B0BDE8F08300BF60
:105BE000743E0200773E02001338020000000000FD
:105BF0002DE9F041044686B00E4615460027304692
:105C0000252117F0DCFBA269A3688046D31A00287F
:105C10005ED0172B03DC20460221FDF719FBC6EBF3
:105C2000080220463146FFF75BFE98F80120642AFF
:105C300032D00CD8252A3DD0632A41D106A92B6841
:105C400001F8183D2E1D20466946012220E0702AE9
:105C500005F1040614D0732A06D0662A30D1A36851
:105C60000833A36015F034FB264B2D68002D08BFC8
:105C70001D46284618F034FA29460246204607E019
:105C800021492A68684617F007FB69460246204604
:105C9000FFF726FE354617E0A36895ED007A03F17D
:105CA0000802F8EEC77AA2600322C3ED007A5A60B8
:105CB000043509E0204615490122FFF711FE03E0F3
:105CC00020461349FDF7DEF8023708F1020696E791
:105CD0000F2B03DC20460121FDF7BAFA304618F0FD
:105CE000FFF9314602462046FFF7FAFD1FB1204674
